{
  "contractName": "SimpleAuction",
  "abi": [
    {
      "constant": true,
      "inputs": [],
      "name": "increamentLotId",
      "outputs": [
        {
          "name": "",
          "type": "uint256"
        }
      ],
      "payable": false,
      "stateMutability": "view",
      "type": "function"
    },
    {
      "constant": true,
      "inputs": [
        {
          "name": "",
          "type": "uint256"
        }
      ],
      "name": "lots",
      "outputs": [
        {
          "name": "name",
          "type": "string"
        },
        {
          "name": "owner",
          "type": "address"
        },
        {
          "name": "price",
          "type": "uint256"
        },
        {
          "name": "minBid",
          "type": "uint256"
        },
        {
          "name": "currentBid",
          "type": "uint256"
        },
        {
          "name": "bidder",
          "type": "address"
        },
        {
          "name": "expiredAt",
          "type": "uint256"
        },
        {
          "name": "isProcessed",
          "type": "bool"
        }
      ],
      "payable": false,
      "stateMutability": "view",
      "type": "function"
    },
    {
      "anonymous": false,
      "inputs": [
        {
          "indexed": false,
          "name": "lotId",
          "type": "uint256"
        },
        {
          "indexed": false,
          "name": "name",
          "type": "string"
        },
        {
          "indexed": false,
          "name": "price",
          "type": "uint256"
        },
        {
          "indexed": false,
          "name": "minBid",
          "type": "uint256"
        }
      ],
      "name": "LotCreated",
      "type": "event"
    },
    {
      "constant": false,
      "inputs": [
        {
          "name": "_name",
          "type": "string"
        },
        {
          "name": "_price",
          "type": "uint256"
        },
        {
          "name": "_minBid",
          "type": "uint256"
        }
      ],
      "name": "createLot",
      "outputs": [],
      "payable": false,
      "stateMutability": "nonpayable",
      "type": "function"
    },
    {
      "constant": false,
      "inputs": [
        {
          "name": "_lotID",
          "type": "uint256"
        }
      ],
      "name": "removeLot",
      "outputs": [],
      "payable": false,
      "stateMutability": "nonpayable",
      "type": "function"
    },
    {
      "constant": false,
      "inputs": [
        {
          "name": "_lotID",
          "type": "uint256"
        }
      ],
      "name": "bid",
      "outputs": [],
      "payable": true,
      "stateMutability": "payable",
      "type": "function"
    },
    {
      "constant": false,
      "inputs": [
        {
          "name": "_lotID",
          "type": "uint256"
        }
      ],
      "name": "processLot",
      "outputs": [],
      "payable": false,
      "stateMutability": "nonpayable",
      "type": "function"
    },
    {
      "constant": true,
      "inputs": [
        {
          "name": "_lotID",
          "type": "uint256"
        }
      ],
      "name": "getBidder",
      "outputs": [
        {
          "name": "",
          "type": "address"
        }
      ],
      "payable": false,
      "stateMutability": "view",
      "type": "function"
    },
    {
      "constant": true,
      "inputs": [
        {
          "name": "_lotID",
          "type": "uint256"
        }
      ],
      "name": "isEnded",
      "outputs": [
        {
          "name": "",
          "type": "bool"
        }
      ],
      "payable": false,
      "stateMutability": "view",
      "type": "function"
    },
    {
      "constant": true,
      "inputs": [
        {
          "name": "_lotID",
          "type": "uint256"
        }
      ],
      "name": "isProcessed",
      "outputs": [
        {
          "name": "",
          "type": "bool"
        }
      ],
      "payable": false,
      "stateMutability": "view",
      "type": "function"
    },
    {
      "constant": true,
      "inputs": [
        {
          "name": "_lotID",
          "type": "uint256"
        }
      ],
      "name": "exists",
      "outputs": [
        {
          "name": "",
          "type": "bool"
        }
      ],
      "payable": false,
      "stateMutability": "view",
      "type": "function"
    }
  ],
  "bytecode": "0x6060604052341561000f57600080fd5b610f898061001e6000396000f3006060604052600436106100a4576000357c0100000000000000000000000000000000000000000000000000000000900463ffffffff168063454a2ab3146100a95780634f558e79146100c15780635a4cbe51146100fc578063865109f21461011f57806398bcf73c14610182578063b66f7a8b146101a5578063bfe7edd7146101e0578063c7de083f1461021b578063ecde3b0514610244578063f1648e84146102b3575b600080fd5b6100bf60048080359060200190919050506103f9565b005b34156100cc57600080fd5b6100e260048080359060200190919050506106a7565b604051808215151515815260200191505060405180910390f35b341561010757600080fd5b61011d60048080359060200190919050506106c8565b005b341561012a57600080fd5b6101406004808035906020019091905050610877565b604051808273ffffffffffffffffffffffffffffffffffffffff1673ffffffffffffffffffffffffffffffffffffffff16815260200191505060405180910390f35b341561018d57600080fd5b6101a360048080359060200190919050506108dc565b005b34156101b057600080fd5b6101c66004808035906020019091905050610956565b604051808215151515815260200191505060405180910390f35b34156101eb57600080fd5b61020160048080359060200190919050506109a2565b604051808215151515815260200191505060405180910390f35b341561022657600080fd5b61022e6109ce565b6040518082815260200191505060405180910390f35b341561024f57600080fd5b6102b1600480803590602001908201803590602001908080601f016020809104026020016040519081016040528093929190818152602001838380828437820191505050505050919080359060200190919080359060200190919050506109d4565b005b34156102be57600080fd5b6102d46004808035906020019091905050610c34565b60405180806020018973ffffffffffffffffffffffffffffffffffffffff1673ffffffffffffffffffffffffffffffffffffffff1681526020018881526020018781526020018681526020018573ffffffffffffffffffffffffffffffffffffffff1673ffffffffffffffffffffffffffffffffffffffff1681526020018481526020018315151515815260200182810382528a8181546001816001161561010002031660029004815260200191508054600181600116156101000203166002900480156103e35780601f106103b8576101008083540402835291602001916103e3565b820191906000526020600020905b8154815290600101906020018083116103c657829003601f168201915b5050995050505050505050505060405180910390f35b610401610de2565b8160008060008381526020019081526020016000206002015411151561042657600080fd5b6000808481526020019081526020016000206101006040519081016040529081600082018054600181600116156101000203166002900480601f0160208091040260200160405190810160405280929190818152602001828054600181600116156101000203166002900480156104de5780601f106104b3576101008083540402835291602001916104de565b820191906000526020600020905b8154815290600101906020018083116104c157829003601f168201915b505050505081526020016001820160009054906101000a900473ffffffffffffffffffffffffffffffffffffffff1673ffffffffffffffffffffffffffffffffffffffff1673ffffffffffffffffffffffffffffffffffffffff1681526020016002820154815260200160038201548152602001600482015481526020016005820160009054906101000a900473ffffffffffffffffffffffffffffffffffffffff1673ffffffffffffffffffffffffffffffffffffffff1673ffffffffffffffffffffffffffffffffffffffff168152602001600682015481526020016007820160009054906101000a900460ff1615151515815250509150438260c001511180156105f35750600015158260e001511515145b15156105fe57600080fd5b8160400151341015156106475761061483610cc8565b600160008085815260200190815260200160002060070160006101000a81548160ff0219169083151502179055506106a2565b6000826080015114801561065f575081606001513410155b156106725761066d83610cc8565b6106a2565b6000826080015111801561068d57508160800151600a340310155b151561069857600080fd5b6106a183610cc8565b5b505050565b60008060008084815260200190815260200160002060020154119050919050565b806000806000838152602001908152602001600020600201541115156106ed57600080fd5b3373ffffffffffffffffffffffffffffffffffffffff1660008084815260200190815260200160002060010160009054906101000a900473ffffffffffffffffffffffffffffffffffffffff1673ffffffffffffffffffffffffffffffffffffffff1614151561075c57600080fd5b600073ffffffffffffffffffffffffffffffffffffffff1660008084815260200190815260200160002060050160009054906101000a900473ffffffffffffffffffffffffffffffffffffffff1673ffffffffffffffffffffffffffffffffffffffff161415156107cc57600080fd5b600080838152602001908152602001600020600080820160006107ef9190610e5c565b6001820160006101000a81549073ffffffffffffffffffffffffffffffffffffffff02191690556002820160009055600382016000905560048201600090556005820160006101000a81549073ffffffffffffffffffffffffffffffffffffffff021916905560068201600090556007820160006101000a81549060ff021916905550505050565b60008160008060008381526020019081526020016000206002015411151561089e57600080fd5b60008084815260200190815260200160002060050160009054906101000a900473ffffffffffffffffffffffffffffffffffffffff16915050919050565b8060008060008381526020019081526020016000206002015411151561090157600080fd5b436000808481526020019081526020016000206006015411151561092457600080fd5b600160008084815260200190815260200160002060070160006101000a81548160ff0219169083151502179055505050565b6000436000808481526020019081526020016000206006015411801561099b575060008083815260200190815260200160002060070160009054906101000a900460ff165b9050919050565b600080600083815260200190815260200160002060070160009054906101000a900460ff169050919050565b60015481565b6000821180156109e45750818111155b15156109ef57600080fd5b60018060008282540192505081905550610100604051908101604052808481526020013373ffffffffffffffffffffffffffffffffffffffff16815260200183815260200182815260200160008152602001600073ffffffffffffffffffffffffffffffffffffffff1681526020016101f4430181526020016000151581525060008060015481526020019081526020016000206000820151816000019080519060200190610a9f929190610ea4565b5060208201518160010160006101000a81548173ffffffffffffffffffffffffffffffffffffffff021916908373ffffffffffffffffffffffffffffffffffffffff16021790555060408201518160020155606082015181600301556080820151816004015560a08201518160050160006101000a81548173ffffffffffffffffffffffffffffffffffffffff021916908373ffffffffffffffffffffffffffffffffffffffff16021790555060c0820151816006015560e08201518160070160006101000a81548160ff0219169083151502179055509050507fe68c92d82f8c0013256a6dea5fc678264716a73a5637c0be7ae8c66defe981866001548484846040518085815260200180602001848152602001838152602001828103825285818151815260200191508051906020019080838360005b83811015610bf2578082015181840152602081019050610bd7565b50505050905090810190601f168015610c1f5780820380516001836020036101000a031916815260200191505b509550505050505060405180910390a1505050565b600060205280600052604060002060009150905080600001908060010160009054906101000a900473ffffffffffffffffffffffffffffffffffffffff16908060020154908060030154908060040154908060050160009054906101000a900473ffffffffffffffffffffffffffffffffffffffff16908060060154908060070160009054906101000a900460ff16905088565b6000806000838152602001908152602001600020600401541115610d715760008082815260200190815260200160002060050160009054906101000a900473ffffffffffffffffffffffffffffffffffffffff1673ffffffffffffffffffffffffffffffffffffffff166108fc600080848152602001908152602001600020600401549081150290604051600060405180830381858888f193505050501515610d7057600080fd5b5b34600080838152602001908152602001600020600401819055503360008083815260200190815260200160002060050160006101000a81548173ffffffffffffffffffffffffffffffffffffffff021916908373ffffffffffffffffffffffffffffffffffffffff16021790555050565b61010060405190810160405280610df7610f24565b8152602001600073ffffffffffffffffffffffffffffffffffffffff168152602001600081526020016000815260200160008152602001600073ffffffffffffffffffffffffffffffffffffffff168152602001600081526020016000151581525090565b50805460018160011615610100020316600290046000825580601f10610e825750610ea1565b601f016020900490600052602060002090810190610ea09190610f38565b5b50565b828054600181600116156101000203166002900490600052602060002090601f016020900481019282601f10610ee557805160ff1916838001178555610f13565b82800160010185558215610f13579182015b82811115610f12578251825591602001919060010190610ef7565b5b509050610f209190610f38565b5090565b602060405190810160405280600081525090565b610f5a91905b80821115610f56576000816000905550600101610f3e565b5090565b905600a165627a7a723058209345d175bad2b7da428dad92a945547925fc0535f23f03b9b1c90f25e4e1fb600029",
  "source": "pragma solidity ^0.4.19;\n\nimport \"./SimpleAuctionInterface.sol\";\n\ncontract SimpleAuction is AuctionInterface {\n\n    // ============\n    // Marketplace:\n    // ============\n\n    uint constant expiredIn = 500;\n\n    uint constant minBidDiff = 10;\n\n    /**\n     * @notice this mapping used for storing lots\n     */\n    mapping (uint => Lot) public lots;\n\n    /**\n    * @notice Increment ID for storing lots in the mapping\n    */\n    uint public increamentLotId;\n\n    /**\n    * @notice  Checks if lot exists\n    * @param   _lotID Integer identifier associated with target lot\n    */\n    modifier lotExists(uint _lotID) {\n        require(lots[_lotID].price > 0);\n        _;\n    }\n\n    /**\n    * @notice  Checks if sender is lot owner\n    * @param   _lotID Integer identifier associated with target lot\n    */\n    modifier lotOwner(uint _lotID) {\n        require(lots[_lotID].price > 0 && lots[_lotID].owner == msg.sender);\n        _;\n    }\n\n    /**\n    * @notice Lot structure\n    */\n    struct Lot {\n        string name;\n        address owner;\n        uint price;\n        uint minBid;\n        uint currentBid;\n        address bidder;\n        uint expiredAt;\n        bool isProcessed;\n    }\n\n    event LotCreated(uint lotId, string name, uint price, uint minBid);\n\n    /**\n     * @notice  Creates a lot.\n     * @param   _name The lot name.\n     * @param   _price Amount (in Wei) needed to buy the lot immediately\n     * @param   _minBid Amount (in Wei) needed to place a bid.\n     */\n    function createLot(string _name, uint _price, uint _minBid) public {\n        require(_price > 0 && _minBid <= _price);\n        increamentLotId += 1;\n        lots[increamentLotId] = Lot({\n            name : _name,\n            owner : msg.sender,\n            price : _price,\n            minBid : _minBid,\n            currentBid : 0,\n            bidder : address(0),\n            expiredAt : block.number + expiredIn,\n            isProcessed : false\n        });\n        LotCreated(increamentLotId, _name, _price, _minBid);\n    }\n\n    /**\n     * @notice  Removes lot, which has no bids.\n     * @param   _lotID Integer identifier associated with target lot\n     */\n    function removeLot(uint _lotID) lotExists(_lotID) public {\n        require(lots[_lotID].owner == msg.sender);\n        require(lots[_lotID].bidder == address(0));\n        delete lots[_lotID];\n    }\n\n    /**\n     * @notice  Places a bid. Contract should return the wei value to previous\n     *          bidder\n     * @param  _lotID Integer identifier associated with target lot\n     */\n    function bid(uint _lotID) payable lotExists(_lotID) public {\n        Lot memory lot = lots[_lotID];\n        require(lot.expiredAt > block.number\n            && lot.isProcessed == false);\n\n        if (msg.value >= lot.price) {\n            placeBid(_lotID);\n            lots[_lotID].isProcessed = true;\n            return;\n        }\n\n        if (lot.currentBid == 0 && msg.value >= lot.minBid) {\n            placeBid(_lotID);\n            return;\n        }\n\n        require(lot.currentBid > 0 && msg.value - minBidDiff >= lot.currentBid);\n        placeBid(_lotID);\n    }\n\n    /**\n    * @notice  Returns previous bid, saves current bid and address\n    * @param   _lotID Integer identifier associated with target lot\n    */\n    function placeBid(uint _lotID ) private {\n        if (lots[_lotID].currentBid > 0) {\n            lots[_lotID].bidder.transfer(lots[_lotID].currentBid);\n        }\n        lots[_lotID].currentBid = msg.value;\n        lots[_lotID].bidder = msg.sender;\n    }\n\n    /**\n     * @notice  Resolves the lot status if it's time is passed. Anyone should\n     *          call the function when the lot ends to explicitly mark the lot\n     *          as completed and transfer bid amount to the lot owner.\n     * @param   _lotID Integer identifier associated with target lot\n     */\n    function processLot(uint _lotID) lotExists(_lotID) public {\n        require(lots[_lotID].expiredAt > block.number);\n        lots[_lotID].isProcessed = true;\n    }\n\n    /**\n     * @notice  Shows the last bid owner (bidder) address.\n     * @param   _lotID Integer identifier associated with target lot\n     * @return  Bidder address\n     */\n    function getBidder(uint _lotID) constant lotExists(_lotID) public returns (address) {\n        return lots[_lotID].bidder;\n    }\n\n    /**\n     * @notice  Determines if lot is ended.\n     * @param   _lotID Integer identifier associated with target lot\n     * @return  Boolean indication of whether the lot is ended.\n     */\n    function isEnded(uint _lotID) constant public returns (bool) {\n        return lots[_lotID].expiredAt > block.number && lots[_lotID].isProcessed;\n    }\n\n    /**\n     * @notice  Determines if lot is processed.\n     * @param   _lotID _lotID Integer identifier associated with target lot\n     * @return  Boolean indication of whether the lot is processed.\n     */\n    function isProcessed(uint _lotID) constant public returns (bool) {\n        return lots[_lotID].isProcessed;\n    }\n\n    /**\n     * @notice  Determines if lot exists.\n     * @param   _lotID Integer identifier associated with target lot\n     * @return  Boolean indication of whether the lot exists.\n     */\n    function exists(uint _lotID) constant public returns (bool) {\n        return lots[_lotID].price > 0;\n    }\n}\n",
  "sourcePath": "/Users/dim/eth/week1/contracts/SimpleAuction.sol",
  "compiler": {
    "name": "solc",
    "version": "0.4.19+commit.c4cbbb05.Emscripten.clang"
  },
  "schemaVersion": "2.0.0",
  "updatedAt": "2018-03-05T15:50:58.270Z"
}